{
  "_format": "hh-sol-artifact-1",
  "contractName": "Campaign",
  "sourceName": "contracts/Campaign.sol",
  "abi": [
    {
      "inputs": [],
      "stateMutability": "nonpayable",
      "type": "constructor"
    },
    {
      "inputs": [
        {
          "internalType": "address",
          "name": "sender",
          "type": "address"
        },
        {
          "internalType": "uint256",
          "name": "tokenId",
          "type": "uint256"
        },
        {
          "internalType": "address",
          "name": "owner",
          "type": "address"
        }
      ],
      "name": "ERC721IncorrectOwner",
      "type": "error"
    },
    {
      "inputs": [
        {
          "internalType": "address",
          "name": "operator",
          "type": "address"
        },
        {
          "internalType": "uint256",
          "name": "tokenId",
          "type": "uint256"
        }
      ],
      "name": "ERC721InsufficientApproval",
      "type": "error"
    },
    {
      "inputs": [
        {
          "internalType": "address",
          "name": "approver",
          "type": "address"
        }
      ],
      "name": "ERC721InvalidApprover",
      "type": "error"
    },
    {
      "inputs": [
        {
          "internalType": "address",
          "name": "operator",
          "type": "address"
        }
      ],
      "name": "ERC721InvalidOperator",
      "type": "error"
    },
    {
      "inputs": [
        {
          "internalType": "address",
          "name": "owner",
          "type": "address"
        }
      ],
      "name": "ERC721InvalidOwner",
      "type": "error"
    },
    {
      "inputs": [
        {
          "internalType": "address",
          "name": "receiver",
          "type": "address"
        }
      ],
      "name": "ERC721InvalidReceiver",
      "type": "error"
    },
    {
      "inputs": [
        {
          "internalType": "address",
          "name": "sender",
          "type": "address"
        }
      ],
      "name": "ERC721InvalidSender",
      "type": "error"
    },
    {
      "inputs": [
        {
          "internalType": "uint256",
          "name": "tokenId",
          "type": "uint256"
        }
      ],
      "name": "ERC721NonexistentToken",
      "type": "error"
    },
    {
      "inputs": [
        {
          "internalType": "address",
          "name": "owner",
          "type": "address"
        }
      ],
      "name": "OwnableInvalidOwner",
      "type": "error"
    },
    {
      "inputs": [
        {
          "internalType": "address",
          "name": "account",
          "type": "address"
        }
      ],
      "name": "OwnableUnauthorizedAccount",
      "type": "error"
    },
    {
      "anonymous": false,
      "inputs": [
        {
          "indexed": true,
          "internalType": "address",
          "name": "owner",
          "type": "address"
        },
        {
          "indexed": true,
          "internalType": "address",
          "name": "approved",
          "type": "address"
        },
        {
          "indexed": true,
          "internalType": "uint256",
          "name": "tokenId",
          "type": "uint256"
        }
      ],
      "name": "Approval",
      "type": "event"
    },
    {
      "anonymous": false,
      "inputs": [
        {
          "indexed": true,
          "internalType": "address",
          "name": "owner",
          "type": "address"
        },
        {
          "indexed": true,
          "internalType": "address",
          "name": "operator",
          "type": "address"
        },
        {
          "indexed": false,
          "internalType": "bool",
          "name": "approved",
          "type": "bool"
        }
      ],
      "name": "ApprovalForAll",
      "type": "event"
    },
    {
      "anonymous": false,
      "inputs": [
        {
          "indexed": false,
          "internalType": "uint256",
          "name": "campaignId",
          "type": "uint256"
        },
        {
          "indexed": false,
          "internalType": "address",
          "name": "fundraiser",
          "type": "address"
        }
      ],
      "name": "CampaignCreated",
      "type": "event"
    },
    {
      "anonymous": false,
      "inputs": [
        {
          "indexed": false,
          "internalType": "uint256",
          "name": "campaignId",
          "type": "uint256"
        },
        {
          "indexed": false,
          "internalType": "bool",
          "name": "isActive",
          "type": "bool"
        }
      ],
      "name": "CampaignStatusChanged",
      "type": "event"
    },
    {
      "anonymous": false,
      "inputs": [
        {
          "indexed": false,
          "internalType": "uint256",
          "name": "campaignId",
          "type": "uint256"
        },
        {
          "indexed": false,
          "internalType": "address",
          "name": "donor",
          "type": "address"
        },
        {
          "indexed": false,
          "internalType": "uint256",
          "name": "amount",
          "type": "uint256"
        }
      ],
      "name": "DonationReceived",
      "type": "event"
    },
    {
      "anonymous": false,
      "inputs": [
        {
          "indexed": false,
          "internalType": "uint256",
          "name": "campaignId",
          "type": "uint256"
        },
        {
          "indexed": false,
          "internalType": "address",
          "name": "fundraiser",
          "type": "address"
        },
        {
          "indexed": false,
          "internalType": "uint256",
          "name": "amount",
          "type": "uint256"
        }
      ],
      "name": "FundsWithdrawn",
      "type": "event"
    },
    {
      "anonymous": false,
      "inputs": [
        {
          "indexed": false,
          "internalType": "uint256",
          "name": "campaignId",
          "type": "uint256"
        },
        {
          "indexed": false,
          "internalType": "address",
          "name": "donor",
          "type": "address"
        },
        {
          "indexed": false,
          "internalType": "uint256",
          "name": "tokenId",
          "type": "uint256"
        }
      ],
      "name": "NFTMinted",
      "type": "event"
    },
    {
      "anonymous": false,
      "inputs": [
        {
          "indexed": true,
          "internalType": "address",
          "name": "previousOwner",
          "type": "address"
        },
        {
          "indexed": true,
          "internalType": "address",
          "name": "newOwner",
          "type": "address"
        }
      ],
      "name": "OwnershipTransferred",
      "type": "event"
    },
    {
      "anonymous": false,
      "inputs": [
        {
          "indexed": true,
          "internalType": "address",
          "name": "from",
          "type": "address"
        },
        {
          "indexed": true,
          "internalType": "address",
          "name": "to",
          "type": "address"
        },
        {
          "indexed": true,
          "internalType": "uint256",
          "name": "tokenId",
          "type": "uint256"
        }
      ],
      "name": "Transfer",
      "type": "event"
    },
    {
      "inputs": [
        {
          "internalType": "address",
          "name": "to",
          "type": "address"
        },
        {
          "internalType": "uint256",
          "name": "tokenId",
          "type": "uint256"
        }
      ],
      "name": "approve",
      "outputs": [],
      "stateMutability": "nonpayable",
      "type": "function"
    },
    {
      "inputs": [
        {
          "internalType": "uint256",
          "name": "",
          "type": "uint256"
        }
      ],
      "name": "availableDurations",
      "outputs": [
        {
          "internalType": "uint256",
          "name": "",
          "type": "uint256"
        }
      ],
      "stateMutability": "view",
      "type": "function"
    },
    {
      "inputs": [
        {
          "internalType": "address",
          "name": "owner",
          "type": "address"
        }
      ],
      "name": "balanceOf",
      "outputs": [
        {
          "internalType": "uint256",
          "name": "",
          "type": "uint256"
        }
      ],
      "stateMutability": "view",
      "type": "function"
    },
    {
      "inputs": [],
      "name": "campaignCount",
      "outputs": [
        {
          "internalType": "uint256",
          "name": "",
          "type": "uint256"
        }
      ],
      "stateMutability": "view",
      "type": "function"
    },
    {
      "inputs": [
        {
          "internalType": "uint256",
          "name": "",
          "type": "uint256"
        }
      ],
      "name": "campaigns",
      "outputs": [
        {
          "internalType": "string",
          "name": "title",
          "type": "string"
        },
        {
          "internalType": "address payable",
          "name": "fundraiser",
          "type": "address"
        },
        {
          "internalType": "uint256",
          "name": "goal",
          "type": "uint256"
        },
        {
          "internalType": "uint256",
          "name": "raisedAmount",
          "type": "uint256"
        },
        {
          "internalType": "uint256",
          "name": "deadline",
          "type": "uint256"
        },
        {
          "internalType": "string",
          "name": "story",
          "type": "string"
        },
        {
          "internalType": "string",
          "name": "imageUrl",
          "type": "string"
        },
        {
          "internalType": "bool",
          "name": "isActive",
          "type": "bool"
        },
        {
          "internalType": "bool",
          "name": "isWithdrawn",
          "type": "bool"
        }
      ],
      "stateMutability": "view",
      "type": "function"
    },
    {
      "inputs": [
        {
          "internalType": "string",
          "name": "_title",
          "type": "string"
        },
        {
          "internalType": "uint256",
          "name": "_goal",
          "type": "uint256"
        },
        {
          "internalType": "uint256",
          "name": "_duration",
          "type": "uint256"
        },
        {
          "internalType": "string",
          "name": "_story",
          "type": "string"
        },
        {
          "internalType": "string",
          "name": "_imageUrl",
          "type": "string"
        }
      ],
      "name": "createCampaign",
      "outputs": [],
      "stateMutability": "nonpayable",
      "type": "function"
    },
    {
      "inputs": [
        {
          "internalType": "uint256",
          "name": "_campaignId",
          "type": "uint256"
        }
      ],
      "name": "donate",
      "outputs": [],
      "stateMutability": "payable",
      "type": "function"
    },
    {
      "inputs": [
        {
          "internalType": "uint256",
          "name": "",
          "type": "uint256"
        },
        {
          "internalType": "address",
          "name": "",
          "type": "address"
        }
      ],
      "name": "donations",
      "outputs": [
        {
          "internalType": "uint256",
          "name": "",
          "type": "uint256"
        }
      ],
      "stateMutability": "view",
      "type": "function"
    },
    {
      "inputs": [
        {
          "internalType": "uint256",
          "name": "tokenId",
          "type": "uint256"
        }
      ],
      "name": "getApproved",
      "outputs": [
        {
          "internalType": "address",
          "name": "",
          "type": "address"
        }
      ],
      "stateMutability": "view",
      "type": "function"
    },
    {
      "inputs": [
        {
          "internalType": "uint256",
          "name": "_campaignId",
          "type": "uint256"
        }
      ],
      "name": "getCampaignDonors",
      "outputs": [
        {
          "internalType": "address[]",
          "name": "",
          "type": "address[]"
        }
      ],
      "stateMutability": "view",
      "type": "function"
    },
    {
      "inputs": [
        {
          "internalType": "uint256",
          "name": "_campaignId",
          "type": "uint256"
        }
      ],
      "name": "getCampaignStatus",
      "outputs": [
        {
          "components": [
            {
              "internalType": "bool",
              "name": "isActive",
              "type": "bool"
            },
            {
              "internalType": "bool",
              "name": "goalReached",
              "type": "bool"
            },
            {
              "internalType": "bool",
              "name": "fundsWithdrawn",
              "type": "bool"
            },
            {
              "internalType": "uint256",
              "name": "timeRemaining",
              "type": "uint256"
            }
          ],
          "internalType": "struct Campaign.CampaignStatus",
          "name": "",
          "type": "tuple"
        }
      ],
      "stateMutability": "view",
      "type": "function"
    },
    {
      "inputs": [
        {
          "internalType": "address",
          "name": "donor",
          "type": "address"
        }
      ],
      "name": "getDonorNFTs",
      "outputs": [
        {
          "internalType": "uint256[]",
          "name": "",
          "type": "uint256[]"
        }
      ],
      "stateMutability": "view",
      "type": "function"
    },
    {
      "inputs": [
        {
          "internalType": "uint256",
          "name": "",
          "type": "uint256"
        },
        {
          "internalType": "address",
          "name": "",
          "type": "address"
        }
      ],
      "name": "hasMintedNFT",
      "outputs": [
        {
          "internalType": "bool",
          "name": "",
          "type": "bool"
        }
      ],
      "stateMutability": "view",
      "type": "function"
    },
    {
      "inputs": [
        {
          "internalType": "address",
          "name": "owner",
          "type": "address"
        },
        {
          "internalType": "address",
          "name": "operator",
          "type": "address"
        }
      ],
      "name": "isApprovedForAll",
      "outputs": [
        {
          "internalType": "bool",
          "name": "",
          "type": "bool"
        }
      ],
      "stateMutability": "view",
      "type": "function"
    },
    {
      "inputs": [
        {
          "internalType": "address",
          "name": "_recipient",
          "type": "address"
        },
        {
          "internalType": "string",
          "name": "_campaignDetails",
          "type": "string"
        }
      ],
      "name": "manualMintNFT",
      "outputs": [
        {
          "internalType": "uint256",
          "name": "",
          "type": "uint256"
        }
      ],
      "stateMutability": "nonpayable",
      "type": "function"
    },
    {
      "inputs": [
        {
          "internalType": "address",
          "name": "recipient",
          "type": "address"
        },
        {
          "internalType": "string",
          "name": "campaignTokenURI",
          "type": "string"
        }
      ],
      "name": "mintNFT",
      "outputs": [
        {
          "internalType": "uint256",
          "name": "",
          "type": "uint256"
        }
      ],
      "stateMutability": "nonpayable",
      "type": "function"
    },
    {
      "inputs": [
        {
          "internalType": "uint256",
          "name": "_campaignId",
          "type": "uint256"
        }
      ],
      "name": "mintParticipationNFT",
      "outputs": [],
      "stateMutability": "nonpayable",
      "type": "function"
    },
    {
      "inputs": [],
      "name": "name",
      "outputs": [
        {
          "internalType": "string",
          "name": "",
          "type": "string"
        }
      ],
      "stateMutability": "view",
      "type": "function"
    },
    {
      "inputs": [],
      "name": "owner",
      "outputs": [
        {
          "internalType": "address",
          "name": "",
          "type": "address"
        }
      ],
      "stateMutability": "view",
      "type": "function"
    },
    {
      "inputs": [
        {
          "internalType": "uint256",
          "name": "tokenId",
          "type": "uint256"
        }
      ],
      "name": "ownerOf",
      "outputs": [
        {
          "internalType": "address",
          "name": "",
          "type": "address"
        }
      ],
      "stateMutability": "view",
      "type": "function"
    },
    {
      "inputs": [
        {
          "internalType": "uint256",
          "name": "_campaignId",
          "type": "uint256"
        }
      ],
      "name": "refundDonation",
      "outputs": [],
      "stateMutability": "nonpayable",
      "type": "function"
    },
    {
      "inputs": [],
      "name": "renounceOwnership",
      "outputs": [],
      "stateMutability": "nonpayable",
      "type": "function"
    },
    {
      "inputs": [
        {
          "internalType": "address",
          "name": "from",
          "type": "address"
        },
        {
          "internalType": "address",
          "name": "to",
          "type": "address"
        },
        {
          "internalType": "uint256",
          "name": "tokenId",
          "type": "uint256"
        }
      ],
      "name": "safeTransferFrom",
      "outputs": [],
      "stateMutability": "nonpayable",
      "type": "function"
    },
    {
      "inputs": [
        {
          "internalType": "address",
          "name": "from",
          "type": "address"
        },
        {
          "internalType": "address",
          "name": "to",
          "type": "address"
        },
        {
          "internalType": "uint256",
          "name": "tokenId",
          "type": "uint256"
        },
        {
          "internalType": "bytes",
          "name": "data",
          "type": "bytes"
        }
      ],
      "name": "safeTransferFrom",
      "outputs": [],
      "stateMutability": "nonpayable",
      "type": "function"
    },
    {
      "inputs": [
        {
          "internalType": "address",
          "name": "operator",
          "type": "address"
        },
        {
          "internalType": "bool",
          "name": "approved",
          "type": "bool"
        }
      ],
      "name": "setApprovalForAll",
      "outputs": [],
      "stateMutability": "nonpayable",
      "type": "function"
    },
    {
      "inputs": [
        {
          "internalType": "bytes4",
          "name": "interfaceId",
          "type": "bytes4"
        }
      ],
      "name": "supportsInterface",
      "outputs": [
        {
          "internalType": "bool",
          "name": "",
          "type": "bool"
        }
      ],
      "stateMutability": "view",
      "type": "function"
    },
    {
      "inputs": [],
      "name": "symbol",
      "outputs": [
        {
          "internalType": "string",
          "name": "",
          "type": "string"
        }
      ],
      "stateMutability": "view",
      "type": "function"
    },
    {
      "inputs": [
        {
          "internalType": "uint256",
          "name": "tokenId",
          "type": "uint256"
        }
      ],
      "name": "tokenURI",
      "outputs": [
        {
          "internalType": "string",
          "name": "",
          "type": "string"
        }
      ],
      "stateMutability": "view",
      "type": "function"
    },
    {
      "inputs": [],
      "name": "totalFundsRaised",
      "outputs": [
        {
          "internalType": "uint256",
          "name": "",
          "type": "uint256"
        }
      ],
      "stateMutability": "view",
      "type": "function"
    },
    {
      "inputs": [
        {
          "internalType": "address",
          "name": "from",
          "type": "address"
        },
        {
          "internalType": "address",
          "name": "to",
          "type": "address"
        },
        {
          "internalType": "uint256",
          "name": "tokenId",
          "type": "uint256"
        }
      ],
      "name": "transferFrom",
      "outputs": [],
      "stateMutability": "nonpayable",
      "type": "function"
    },
    {
      "inputs": [
        {
          "internalType": "address",
          "name": "newOwner",
          "type": "address"
        }
      ],
      "name": "transferOwnership",
      "outputs": [],
      "stateMutability": "nonpayable",
      "type": "function"
    },
    {
      "inputs": [
        {
          "internalType": "uint256",
          "name": "_campaignId",
          "type": "uint256"
        }
      ],
      "name": "withdrawFunds",
      "outputs": [],
      "stateMutability": "nonpayable",
      "type": "function"
    }
  ],
  "bytecode": "0x6101606040526078608090815261012c60a05261038460c052610e1060e052620151806101005262093a806101205262278d00610140526200004690600e90600762000160565b503480156200005457600080fd5b50336040518060400160405280601881526020017f43616d706169676e50617274696369706174696f6e4e465400000000000000008152506040518060400160405280600581526020016410d413919560da1b8152508160009081620000bb919062000273565b506001620000ca828262000273565b5050506001600160a01b038116620000fc57604051631e4fbdf760e01b81526000600482015260240160405180910390fd5b62000107816200010e565b506200033f565b600680546001600160a01b038381166001600160a01b0319831681179093556040519116919082907f8be0079c531659141344cd1fd0a4f28419497f9722a3daafe3b4186f6b6457e090600090a35050565b828054828255906000526020600020908101928215620001a5579160200282015b82811115620001a5578251829062ffffff1690559160200191906001019062000181565b50620001b3929150620001b7565b5090565b5b80821115620001b35760008155600101620001b8565b634e487b7160e01b600052604160045260246000fd5b600181811c90821680620001f957607f821691505b6020821081036200021a57634e487b7160e01b600052602260045260246000fd5b50919050565b601f8211156200026e57600081815260208120601f850160051c81016020861015620002495750805b601f850160051c820191505b818110156200026a5782815560010162000255565b5050505b505050565b81516001600160401b038111156200028f576200028f620001ce565b620002a781620002a08454620001e4565b8462000220565b602080601f831160018114620002df5760008415620002c65750858301515b600019600386901b1c1916600185901b1785556200026a565b600085815260208120601f198616915b828110156200031057888601518255948401946001909101908401620002ef565b50858210156200032f5787850151600019600388901b60f8161c191681555b5050505050600190811b01905550565b612c0b806200034f6000396000f3fe6080604052600436106101e35760003560e01c806370a0823111610102578063bb613cc111610095578063eacabe1411610064578063eacabe14146105fe578063ee1554a31461061e578063f14faf6f14610656578063f2fde38b1461066957600080fd5b8063bb613cc114610563578063c87b56dd14610583578063dc218565146105a3578063e985e9c5146105de57600080fd5b806395d89b41116100d157806395d89b41146104e1578063a22cb465146104f6578063a7f5b51b14610516578063b88d4fde1461054357600080fd5b806370a0823114610478578063715018a6146104985780637274e30d146104ad5780638da5cb5b146104c357600080fd5b806323b872dd1161017a5780635a201686116101495780635a201686146103bf5780636352211e146103df5780636c19e004146103ff578063709cacc21461045857600080fd5b806323b872dd1461033b578063427c0c7f1461035b57806342842e0e1461037f5780634b2aafcc1461039f57600080fd5b8063141961bc116101b6578063141961bc14610299578063155dd5ee146102ce578063209b7d5f146102ee57806323821cea1461031b57600080fd5b806301ffc9a7146101e857806306fdde031461021d578063081812fc1461023f578063095ea7b314610277575b600080fd5b3480156101f457600080fd5b506102086102033660046123bb565b610689565b60405190151581526020015b60405180910390f35b34801561022957600080fd5b506102326106db565b6040516102149190612428565b34801561024b57600080fd5b5061025f61025a36600461243b565b61076d565b6040516001600160a01b039091168152602001610214565b34801561028357600080fd5b50610297610292366004612470565b610796565b005b3480156102a557600080fd5b506102b96102b436600461243b565b6107a5565b6040516102149998979695949392919061249a565b3480156102da57600080fd5b506102976102e936600461243b565b610998565b3480156102fa57600080fd5b5061030e61030936600461243b565b610c1f565b6040516102149190612519565b34801561032757600080fd5b5061029761033636600461243b565b610c8e565b34801561034757600080fd5b50610297610356366004612566565b610ddd565b34801561036757600080fd5b50610371600d5481565b604051908152602001610214565b34801561038b57600080fd5b5061029761039a366004612566565b610e68565b3480156103ab57600080fd5b506102976103ba36600461264e565b610e88565b3480156103cb57600080fd5b506103716103da36600461243b565b6110fd565b3480156103eb57600080fd5b5061025f6103fa36600461243b565b61111e565b34801561040b57600080fd5b5061041f61041a36600461243b565b611129565b60405161021491908151151581526020808301511515908201526040808301511515908201526060918201519181019190915260800190565b34801561046457600080fd5b5061029761047336600461243b565b6111e9565b34801561048457600080fd5b506103716104933660046126ea565b6113fc565b3480156104a457600080fd5b50610297611444565b3480156104b957600080fd5b50610371600c5481565b3480156104cf57600080fd5b506006546001600160a01b031661025f565b3480156104ed57600080fd5b50610232611458565b34801561050257600080fd5b50610297610511366004612705565b611467565b34801561052257600080fd5b506105366105313660046126ea565b611472565b6040516102149190612741565b34801561054f57600080fd5b5061029761055e366004612779565b6115cf565b34801561056f57600080fd5b5061037161057e3660046127f5565b6115e7565b34801561058f57600080fd5b5061023261059e36600461243b565b611627565b3480156105af57600080fd5b506102086105be366004612843565b600b60209081526000928352604080842090915290825290205460ff1681565b3480156105ea57600080fd5b506102086105f936600461286f565b6116bf565b34801561060a57600080fd5b506103716106193660046127f5565b6116ed565b34801561062a57600080fd5b50610371610639366004612843565b600a60209081526000928352604080842090915290825290205481565b61029761066436600461243b565b611721565b34801561067557600080fd5b506102976106843660046126ea565b611ab7565b60006001600160e01b031982166380ac58cd60e01b14806106ba57506001600160e01b03198216635b5e139f60e01b145b806106d557506301ffc9a760e01b6001600160e01b03198316145b92915050565b6060600080546106ea90612899565b80601f016020809104026020016040519081016040528092919081815260200182805461071690612899565b80156107635780601f1061073857610100808354040283529160200191610763565b820191906000526020600020905b81548152906001019060200180831161074657829003601f168201915b5050505050905090565b600061077882611af2565b506000828152600460205260409020546001600160a01b03166106d5565b6107a1828233611b2b565b5050565b6009602052600090815260409020805481906107c090612899565b80601f01602080910402602001604051908101604052809291908181526020018280546107ec90612899565b80156108395780601f1061080e57610100808354040283529160200191610839565b820191906000526020600020905b81548152906001019060200180831161081c57829003601f168201915b505050600184015460028501546003860154600487015460058801805497986001600160a01b0390951697939650919450929161087590612899565b80601f01602080910402602001604051908101604052809291908181526020018280546108a190612899565b80156108ee5780601f106108c3576101008083540402835291602001916108ee565b820191906000526020600020905b8154815290600101906020018083116108d157829003601f168201915b50505050509080600601805461090390612899565b80601f016020809104026020016040519081016040528092919081815260200182805461092f90612899565b801561097c5780601f106109515761010080835404028352916020019161097c565b820191906000526020600020905b81548152906001019060200180831161095f57829003601f168201915b5050506007909301549192505060ff8082169161010090041689565b6000818152600960205260409020600101546001600160a01b03163314610a065760405162461bcd60e51b815260206004820152601c60248201527f4f6e6c792066756e647261697365722063616e2077697468647261770000000060448201526064015b60405180910390fd5b600081815260096020526040902060028101546003909101541015610a605760405162461bcd60e51b815260206004820152601060248201526f11dbd85b081b9bdd081c995858da195960821b60448201526064016109fd565b600081815260096020526040902060070154610100900460ff1615610ac75760405162461bcd60e51b815260206004820152601760248201527f46756e647320616c72656164792077697468647261776e00000000000000000060448201526064016109fd565b600081815260096020526040902060040154421015610b1d5760405162461bcd60e51b815260206004820152601260248201527110d85b5c185a59db881b9bdd08195b99195960721b60448201526064016109fd565b600081815260096020526040808220600381015460078201805461ff00191661010017905560019091015491519092916001600160a01b03169083908381818185875af1925050503d8060008114610b91576040519150601f19603f3d011682016040523d82523d6000602084013e610b96565b606091505b5050905080610bd95760405162461bcd60e51b815260206004820152600f60248201526e151c985b9cd9995c8819985a5b1959608a1b60448201526064016109fd565b604080518481523360208201529081018390527ff440aec6b52895984d061d622e6edeba6210f7c3e059be920663140c084560d7906060015b60405180910390a1505050565b600081815260096020908152604091829020600801805483518184028101840190945280845260609392830182828015610c8257602002820191906000526020600020905b81546001600160a01b03168152600190910190602001808311610c64575b50505050509050919050565b6000818152600a60209081526040808320338452909152902054610cfe5760405162461bcd60e51b815260206004820152602160248201527f4e6f20646f6e6174696f6e206d61646520746f20746869732063616d706169676044820152603760f91b60648201526084016109fd565b6000818152600b6020908152604080832033845290915290205460ff1615610d5d5760405162461bcd60e51b815260206004820152601260248201527113919508185b1c9958591e481b5a5b9d195960721b60448201526064016109fd565b6000610d698233611b38565b90506000610d7733836116ed565b6000848152600b602090815260408083203380855290835292819020805460ff191660011790558051878152918201929092529081018290529091507f055e34067993de700e7f718f190fdccc92a27695bb9068504a1a44258577f8eb90606001610c12565b6001600160a01b038216610e0757604051633250574960e11b8152600060048201526024016109fd565b6000610e14838333611c7c565b9050836001600160a01b0316816001600160a01b031614610e62576040516364283d7b60e01b81526001600160a01b03808616600483015260248201849052821660448201526064016109fd565b50505050565b610e83838383604051806020016040528060008152506115cf565b505050565b60008411610ed85760405162461bcd60e51b815260206004820152601b60248201527f476f616c206d7573742062652067726561746572207468616e2030000000000060448201526064016109fd565b60008311610f285760405162461bcd60e51b815260206004820152601f60248201527f4475726174696f6e206d7573742062652067726561746572207468616e20300060448201526064016109fd565b6000805b600e54811015610f7557600e8181548110610f4957610f496128d3565b90600052602060002001548503610f635760019150610f75565b80610f6d816128ff565b915050610f2c565b5080610fc35760405162461bcd60e51b815260206004820152601960248201527f496e76616c6964206475726174696f6e2073656c65637465640000000000000060448201526064016109fd565b600c8054906000610fd3836128ff565b9091555050600c546000908152600960205260409020610ff3878261295e565b50600c805460009081526009602052604080822060010180546001600160a01b0319163317905582548252808220600201889055915481529081206003015561103c8442612a1e565b600c8054600090815260096020526040808220600401939093559054815220600501611068848261295e565b50600c546000908152600960205260409020600601611087838261295e565b50600c805460009081526009602052604090819020600701805460ff19166001179055905490517f633109eec20320eded000fc1e2634211aa7e92ba3f5b15faf6dcdafca05094e4916110ed9133909182526001600160a01b0316602082015260400190565b60405180910390a1505050505050565b600e818154811061110d57600080fd5b600091825260209091200154905081565b60006106d582611af2565b6040805160808101825260008082526020820181905291810182905260608101919091526000828152600960205260408120600781015490919060ff1680156111755750816004015442105b90506000826002015483600301541015905060004284600401541161119b5760006111ab565b4284600401546111ab9190612a31565b604080516080810182529415158552921515602085015260079094015460ff6101009091041615159183019190915250606081019190915292915050565b60008181526009602052604090206007015460ff161561124b5760405162461bcd60e51b815260206004820152601860248201527f43616d706169676e206973207374696c6c20616374697665000000000000000060448201526064016109fd565b6000818152600960205260409020600401544210156112a15760405162461bcd60e51b815260206004820152601260248201527110d85b5c185a59db881b9bdd08195b99195960721b60448201526064016109fd565b60008181526009602052604090206002810154600390910154106112f65760405162461bcd60e51b815260206004820152600c60248201526b11dbd85b081c995858da195960a21b60448201526064016109fd565b6000818152600a60209081526040808320338452909152902054806113555760405162461bcd60e51b8152602060048201526015602482015274139bc8191bdb985d1a5bdb881d1bc81c99599d5b99605a1b60448201526064016109fd565b6000828152600a602090815260408083203380855292528083208390555183908381818185875af1925050503d80600081146113ad576040519150601f19603f3d011682016040523d82523d6000602084013e6113b2565b606091505b5050905080610e835760405162461bcd60e51b81526020600482015260166024820152751499599d5b99081d1c985b9cd9995c8819985a5b195960521b60448201526064016109fd565b60006001600160a01b038216611428576040516322718ad960e21b8152600060048201526024016109fd565b506001600160a01b031660009081526003602052604090205490565b61144c611d75565b6114566000611da2565b565b6060600180546106ea90612899565b6107a1338383611df4565b6060600060075467ffffffffffffffff811115611491576114916125a2565b6040519080825280602002602001820160405280156114ba578160200160208202803683370190505b509050600060015b600754811161152a576000818152600260205260409020546001600160a01b0386811691160361151857808383815181106114ff576114ff6128d3565b602090810291909101015281611514816128ff565b9250505b80611522816128ff565b9150506114c2565b5060008167ffffffffffffffff811115611546576115466125a2565b60405190808252806020026020018201604052801561156f578160200160208202803683370190505b50905060005b828110156115c65783818151811061158f5761158f6128d3565b60200260200101518282815181106115a9576115a96128d3565b6020908102919091010152806115be816128ff565b915050611575565b50949350505050565b6115da848484610ddd565b610e623385858585611e93565b60006115f1611d75565b6000826040516020016116049190612a60565b604051602081830303815290604052905061161f84826116ed565b949350505050565b600081815260086020526040902080546060919061164490612899565b80601f016020809104026020016040519081016040528092919081815260200182805461167090612899565b8015610c825780601f1061169257610100808354040283529160200191610c82565b820191906000526020600020905b8154815290600101906020018083116116a05750939695505050505050565b6001600160a01b03918216600090815260056020908152604080832093909416825291909152205460ff1690565b60078054600091826116fe836128ff565b90915550506007546117108482611fbe565b61171a8184611fd8565b9392505050565b60008181526009602052604090206007015460ff1661177b5760405162461bcd60e51b815260206004820152601660248201527543616d706169676e206973206e6f742061637469766560501b60448201526064016109fd565b60008181526009602052604090206004015442106117d05760405162461bcd60e51b815260206004820152601260248201527110d85b5c185a59db881a185cc8195b99195960721b60448201526064016109fd565b600034116118205760405162461bcd60e51b815260206004820152601960248201527f4d7573742073656e6420657468657220746f20646f6e6174650000000000000060448201526064016109fd565b60008181526009602052604090206002810154600390910154611844903490612a1e565b111561189e5760405162461bcd60e51b815260206004820152602360248201527f446f6e6174696f6e20776f756c64206578636565642063616d706169676e20676044820152621bd85b60ea1b60648201526084016109fd565b6000818152600a6020908152604080832033845290915281205490036118f05760008181526009602090815260408220600801805460018101825590835291200180546001600160a01b031916331790555b6000818152600a6020908152604080832033845290915281208054349290611919908490612a1e565b90915550506000818152600960205260408120600301805434929061193f908490612a1e565b9250508190555034600d60008282546119589190612a1e565b909155505060408051828152336020820152348183015290517f0b5b4c52969ff7329ecf7ee536409fda87812b15a8622bc6e8cdeab3aee14a269181900360600190a16000818152600b6020908152604080832033845290915290205460ff16611a425760006119c88233611b38565b905060006119d633836116ed565b6000848152600b602090815260408083203380855290835292819020805460ff191660011790558051878152918201929092529081018290529091507f055e34067993de700e7f718f190fdccc92a27695bb9068504a1a44258577f8eb9060600160405180910390a150505b6000818152600960205260409020600281015460039091015410611ab4576000818152600960209081526040808320600701805460ff191690558051848152918201929092527f33641491749634f1bb4cfb02728199b749f89fca34cc54faf7e74bbb84910885910160405180910390a15b50565b611abf611d75565b6001600160a01b038116611ae957604051631e4fbdf760e01b8152600060048201526024016109fd565b611ab481611da2565b6000818152600260205260408120546001600160a01b0316806106d557604051637e27328960e01b8152600481018490526024016109fd565b610e838383836001611ff0565b60606000428385604051602001611b749392919092835260609190911b6bffffffffffffffffffffffff19166020830152603482015260540190565b60408051601f19818403018152828252805160209182012060e084018352600460a08501818152631e13f19160e31b60c08701528552835180850185528181526301e13f3560e71b81850152858401528351808501855281815263f09f8c9f60e01b81850152858501528351808501855290815263f09f8c8d60e01b818401526060850152825180840184526006815265e29da4efb88f60d01b81840152608085015260008881526009909252919020909250611c30866120f6565b82611c3c600586612a96565b60058110611c4c57611c4c6128d3565b6020020151604051602001611c6393929190612ab8565b6040516020818303038152906040529250505092915050565b6000828152600260205260408120546001600160a01b0390811690831615611ca957611ca9818486612189565b6001600160a01b03811615611ce757611cc6600085600080611ff0565b6001600160a01b038116600090815260036020526040902080546000190190555b6001600160a01b03851615611d16576001600160a01b0385166000908152600360205260409020805460010190555b60008481526002602052604080822080546001600160a01b0319166001600160a01b0389811691821790925591518793918516917fddf252ad1be2c89b69c2b068fc378daa952ba7f163c4a11628f55a4df523b3ef91a4949350505050565b6006546001600160a01b031633146114565760405163118cdaa760e01b81523360048201526024016109fd565b600680546001600160a01b038381166001600160a01b0319831681179093556040519116919082907f8be0079c531659141344cd1fd0a4f28419497f9722a3daafe3b4186f6b6457e090600090a35050565b6001600160a01b038216611e2657604051630b61174360e31b81526001600160a01b03831660048201526024016109fd565b6001600160a01b03838116600081815260056020908152604080832094871680845294825291829020805460ff191686151590811790915591519182527f17307eab39ab6107e8899845ad3d59bd9653f200f220920489ca2b5937696c31910160405180910390a3505050565b6001600160a01b0383163b15611fb757604051630a85bd0160e11b81526001600160a01b0384169063150b7a0290611ed5908890889087908790600401612b7b565b6020604051808303816000875af1925050508015611f10575060408051601f3d908101601f19168201909252611f0d91810190612bb8565b60015b611f79573d808015611f3e576040519150601f19603f3d011682016040523d82523d6000602084013e611f43565b606091505b508051600003611f7157604051633250574960e11b81526001600160a01b03851660048201526024016109fd565b805181602001fd5b6001600160e01b03198116630a85bd0160e11b14611fb557604051633250574960e11b81526001600160a01b03851660048201526024016109fd565b505b5050505050565b6107a18282604051806020016040528060008152506121ed565b6000828152600860205260409020610e83828261295e565b808061200457506001600160a01b03821615155b156120c657600061201484611af2565b90506001600160a01b038316158015906120405750826001600160a01b0316816001600160a01b031614155b8015612053575061205181846116bf565b155b1561207c5760405163a9fbf51f60e01b81526001600160a01b03841660048201526024016109fd565b81156120c45783856001600160a01b0316826001600160a01b03167f8c5be1e5ebec7d5bd14f71427d1e84f3dd0314c0f7b2291e5b200ac8c7c3b92560405160405180910390a45b505b5050600090815260046020526040902080546001600160a01b0319166001600160a01b0392909216919091179055565b6060600061210383612205565b600101905060008167ffffffffffffffff811115612123576121236125a2565b6040519080825280601f01601f19166020018201604052801561214d576020820181803683370190505b5090508181016020015b600019016f181899199a1a9b1b9c1cb0b131b232b360811b600a86061a8153600a850494508461215757509392505050565b6121948383836122dd565b610e83576001600160a01b0383166121c257604051637e27328960e01b8152600481018290526024016109fd565b60405163177e802f60e01b81526001600160a01b0383166004820152602481018290526044016109fd565b6121f78383612340565b610e83336000858585611e93565b60008072184f03e93ff9f4daa797ed6e38ed64bf6a1f0160401b83106122445772184f03e93ff9f4daa797ed6e38ed64bf6a1f0160401b830492506040015b6d04ee2d6d415b85acef81000000008310612270576d04ee2d6d415b85acef8100000000830492506020015b662386f26fc10000831061228e57662386f26fc10000830492506010015b6305f5e10083106122a6576305f5e100830492506008015b61271083106122ba57612710830492506004015b606483106122cc576064830492506002015b600a83106106d55760010192915050565b60006001600160a01b0383161580159061161f5750826001600160a01b0316846001600160a01b03161480612317575061231784846116bf565b8061161f5750506000908152600460205260409020546001600160a01b03918216911614919050565b6001600160a01b03821661236a57604051633250574960e11b8152600060048201526024016109fd565b600061237883836000611c7c565b90506001600160a01b03811615610e83576040516339e3563760e11b8152600060048201526024016109fd565b6001600160e01b031981168114611ab457600080fd5b6000602082840312156123cd57600080fd5b813561171a816123a5565b60005b838110156123f35781810151838201526020016123db565b50506000910152565b600081518084526124148160208601602086016123d8565b601f01601f19169290920160200192915050565b60208152600061171a60208301846123fc565b60006020828403121561244d57600080fd5b5035919050565b80356001600160a01b038116811461246b57600080fd5b919050565b6000806040838503121561248357600080fd5b61248c83612454565b946020939093013593505050565b60006101208083526124ae8184018d6123fc565b6001600160a01b038c166020850152604084018b9052606084018a90526080840189905283810360a085015290506124e681886123fc565b905082810360c08401526124fa81876123fc565b94151560e0840152505090151561010090910152979650505050505050565b6020808252825182820181905260009190848201906040850190845b8181101561255a5783516001600160a01b031683529284019291840191600101612535565b50909695505050505050565b60008060006060848603121561257b57600080fd5b61258484612454565b925061259260208501612454565b9150604084013590509250925092565b634e487b7160e01b600052604160045260246000fd5b600067ffffffffffffffff808411156125d3576125d36125a2565b604051601f8501601f19908116603f011681019082821181831017156125fb576125fb6125a2565b8160405280935085815286868601111561261457600080fd5b858560208301376000602087830101525050509392505050565b600082601f83011261263f57600080fd5b61171a838335602085016125b8565b600080600080600060a0868803121561266657600080fd5b853567ffffffffffffffff8082111561267e57600080fd5b61268a89838a0161262e565b9650602088013595506040880135945060608801359150808211156126ae57600080fd5b6126ba89838a0161262e565b935060808801359150808211156126d057600080fd5b506126dd8882890161262e565b9150509295509295909350565b6000602082840312156126fc57600080fd5b61171a82612454565b6000806040838503121561271857600080fd5b61272183612454565b91506020830135801515811461273657600080fd5b809150509250929050565b6020808252825182820181905260009190848201906040850190845b8181101561255a5783518352928401929184019160010161275d565b6000806000806080858703121561278f57600080fd5b61279885612454565b93506127a660208601612454565b925060408501359150606085013567ffffffffffffffff8111156127c957600080fd5b8501601f810187136127da57600080fd5b6127e9878235602084016125b8565b91505092959194509250565b6000806040838503121561280857600080fd5b61281183612454565b9150602083013567ffffffffffffffff81111561282d57600080fd5b6128398582860161262e565b9150509250929050565b6000806040838503121561285657600080fd5b8235915061286660208401612454565b90509250929050565b6000806040838503121561288257600080fd5b61288b83612454565b915061286660208401612454565b600181811c908216806128ad57607f821691505b6020821081036128cd57634e487b7160e01b600052602260045260246000fd5b50919050565b634e487b7160e01b600052603260045260246000fd5b634e487b7160e01b600052601160045260246000fd5b600060018201612911576129116128e9565b5060010190565b601f821115610e8357600081815260208120601f850160051c8101602086101561293f5750805b601f850160051c820191505b81811015611fb55782815560010161294b565b815167ffffffffffffffff811115612978576129786125a2565b61298c816129868454612899565b84612918565b602080601f8311600181146129c157600084156129a95750858301515b600019600386901b1c1916600185901b178555611fb5565b600085815260208120601f198616915b828110156129f0578886015182559484019460019091019084016129d1565b5085821015612a0e5787850151600019600388901b60f8161c191681555b5050505050600190811b01905550565b808201808211156106d5576106d56128e9565b818103818111156106d5576106d56128e9565b60008151612a568185602086016123d8565b9290920192915050565b6d021b0b6b830b4b3b71027232a1d160951b815260008251612a8981600e8501602087016123d8565b91909101600e0192915050565b600082612ab357634e487b7160e01b600052601260045260246000fd5b500690565b6000808554612ac681612899565b60018281168015612ade5760018114612af357612b22565b60ff1984168752821515830287019450612b22565b8960005260208060002060005b85811015612b195781548a820152908401908201612b00565b50505082870194505b5050505070202d2043616d706169676e204e4654202360781b81528451612b508160118401602089016123d8565b612b70612b6a6011838501016101d160f51b815260020190565b86612a44565b979650505050505050565b6001600160a01b0385811682528416602082015260408101839052608060608201819052600090612bae908301846123fc565b9695505050505050565b600060208284031215612bca57600080fd5b815161171a816123a556fea26469706673582212204a64c170c9a1e2f74eba3ee62397ac83d6861418e7c3d7996ebe6d7232a262be64736f6c63430008140033",
  "linkReferences": {},
  "deployedLinkReferences": {}
}