{
  "_format": "hh-sol-artifact-1",
  "contractName": "CampaignNFT",
  "sourceName": "contracts/Campaign.sol",
  "abi": [
    {
      "inputs": [],
      "stateMutability": "nonpayable",
      "type": "constructor"
    },
    {
      "inputs": [
        {
          "internalType": "address",
          "name": "sender",
          "type": "address"
        },
        {
          "internalType": "uint256",
          "name": "tokenId",
          "type": "uint256"
        },
        {
          "internalType": "address",
          "name": "owner",
          "type": "address"
        }
      ],
      "name": "ERC721IncorrectOwner",
      "type": "error"
    },
    {
      "inputs": [
        {
          "internalType": "address",
          "name": "operator",
          "type": "address"
        },
        {
          "internalType": "uint256",
          "name": "tokenId",
          "type": "uint256"
        }
      ],
      "name": "ERC721InsufficientApproval",
      "type": "error"
    },
    {
      "inputs": [
        {
          "internalType": "address",
          "name": "approver",
          "type": "address"
        }
      ],
      "name": "ERC721InvalidApprover",
      "type": "error"
    },
    {
      "inputs": [
        {
          "internalType": "address",
          "name": "operator",
          "type": "address"
        }
      ],
      "name": "ERC721InvalidOperator",
      "type": "error"
    },
    {
      "inputs": [
        {
          "internalType": "address",
          "name": "owner",
          "type": "address"
        }
      ],
      "name": "ERC721InvalidOwner",
      "type": "error"
    },
    {
      "inputs": [
        {
          "internalType": "address",
          "name": "receiver",
          "type": "address"
        }
      ],
      "name": "ERC721InvalidReceiver",
      "type": "error"
    },
    {
      "inputs": [
        {
          "internalType": "address",
          "name": "sender",
          "type": "address"
        }
      ],
      "name": "ERC721InvalidSender",
      "type": "error"
    },
    {
      "inputs": [
        {
          "internalType": "uint256",
          "name": "tokenId",
          "type": "uint256"
        }
      ],
      "name": "ERC721NonexistentToken",
      "type": "error"
    },
    {
      "inputs": [
        {
          "internalType": "address",
          "name": "owner",
          "type": "address"
        }
      ],
      "name": "OwnableInvalidOwner",
      "type": "error"
    },
    {
      "inputs": [
        {
          "internalType": "address",
          "name": "account",
          "type": "address"
        }
      ],
      "name": "OwnableUnauthorizedAccount",
      "type": "error"
    },
    {
      "anonymous": false,
      "inputs": [
        {
          "indexed": true,
          "internalType": "address",
          "name": "owner",
          "type": "address"
        },
        {
          "indexed": true,
          "internalType": "address",
          "name": "approved",
          "type": "address"
        },
        {
          "indexed": true,
          "internalType": "uint256",
          "name": "tokenId",
          "type": "uint256"
        }
      ],
      "name": "Approval",
      "type": "event"
    },
    {
      "anonymous": false,
      "inputs": [
        {
          "indexed": true,
          "internalType": "address",
          "name": "owner",
          "type": "address"
        },
        {
          "indexed": true,
          "internalType": "address",
          "name": "operator",
          "type": "address"
        },
        {
          "indexed": false,
          "internalType": "bool",
          "name": "approved",
          "type": "bool"
        }
      ],
      "name": "ApprovalForAll",
      "type": "event"
    },
    {
      "anonymous": false,
      "inputs": [
        {
          "indexed": true,
          "internalType": "address",
          "name": "previousOwner",
          "type": "address"
        },
        {
          "indexed": true,
          "internalType": "address",
          "name": "newOwner",
          "type": "address"
        }
      ],
      "name": "OwnershipTransferred",
      "type": "event"
    },
    {
      "anonymous": false,
      "inputs": [
        {
          "indexed": true,
          "internalType": "address",
          "name": "from",
          "type": "address"
        },
        {
          "indexed": true,
          "internalType": "address",
          "name": "to",
          "type": "address"
        },
        {
          "indexed": true,
          "internalType": "uint256",
          "name": "tokenId",
          "type": "uint256"
        }
      ],
      "name": "Transfer",
      "type": "event"
    },
    {
      "inputs": [
        {
          "internalType": "address",
          "name": "to",
          "type": "address"
        },
        {
          "internalType": "uint256",
          "name": "tokenId",
          "type": "uint256"
        }
      ],
      "name": "approve",
      "outputs": [],
      "stateMutability": "nonpayable",
      "type": "function"
    },
    {
      "inputs": [
        {
          "internalType": "address",
          "name": "owner",
          "type": "address"
        }
      ],
      "name": "balanceOf",
      "outputs": [
        {
          "internalType": "uint256",
          "name": "",
          "type": "uint256"
        }
      ],
      "stateMutability": "view",
      "type": "function"
    },
    {
      "inputs": [
        {
          "internalType": "uint256",
          "name": "tokenId",
          "type": "uint256"
        }
      ],
      "name": "getApproved",
      "outputs": [
        {
          "internalType": "address",
          "name": "",
          "type": "address"
        }
      ],
      "stateMutability": "view",
      "type": "function"
    },
    {
      "inputs": [
        {
          "internalType": "address",
          "name": "donor",
          "type": "address"
        }
      ],
      "name": "getDonorNFTs",
      "outputs": [
        {
          "internalType": "uint256[]",
          "name": "",
          "type": "uint256[]"
        }
      ],
      "stateMutability": "view",
      "type": "function"
    },
    {
      "inputs": [
        {
          "internalType": "address",
          "name": "owner",
          "type": "address"
        },
        {
          "internalType": "address",
          "name": "operator",
          "type": "address"
        }
      ],
      "name": "isApprovedForAll",
      "outputs": [
        {
          "internalType": "bool",
          "name": "",
          "type": "bool"
        }
      ],
      "stateMutability": "view",
      "type": "function"
    },
    {
      "inputs": [
        {
          "internalType": "address",
          "name": "_recipient",
          "type": "address"
        },
        {
          "internalType": "string",
          "name": "_campaignDetails",
          "type": "string"
        }
      ],
      "name": "manualMintNFT",
      "outputs": [
        {
          "internalType": "uint256",
          "name": "",
          "type": "uint256"
        }
      ],
      "stateMutability": "nonpayable",
      "type": "function"
    },
    {
      "inputs": [
        {
          "internalType": "address",
          "name": "recipient",
          "type": "address"
        },
        {
          "internalType": "string",
          "name": "campaignTokenURI",
          "type": "string"
        }
      ],
      "name": "mintNFT",
      "outputs": [
        {
          "internalType": "uint256",
          "name": "",
          "type": "uint256"
        }
      ],
      "stateMutability": "nonpayable",
      "type": "function"
    },
    {
      "inputs": [],
      "name": "name",
      "outputs": [
        {
          "internalType": "string",
          "name": "",
          "type": "string"
        }
      ],
      "stateMutability": "view",
      "type": "function"
    },
    {
      "inputs": [],
      "name": "owner",
      "outputs": [
        {
          "internalType": "address",
          "name": "",
          "type": "address"
        }
      ],
      "stateMutability": "view",
      "type": "function"
    },
    {
      "inputs": [
        {
          "internalType": "uint256",
          "name": "tokenId",
          "type": "uint256"
        }
      ],
      "name": "ownerOf",
      "outputs": [
        {
          "internalType": "address",
          "name": "",
          "type": "address"
        }
      ],
      "stateMutability": "view",
      "type": "function"
    },
    {
      "inputs": [],
      "name": "renounceOwnership",
      "outputs": [],
      "stateMutability": "nonpayable",
      "type": "function"
    },
    {
      "inputs": [
        {
          "internalType": "address",
          "name": "from",
          "type": "address"
        },
        {
          "internalType": "address",
          "name": "to",
          "type": "address"
        },
        {
          "internalType": "uint256",
          "name": "tokenId",
          "type": "uint256"
        }
      ],
      "name": "safeTransferFrom",
      "outputs": [],
      "stateMutability": "nonpayable",
      "type": "function"
    },
    {
      "inputs": [
        {
          "internalType": "address",
          "name": "from",
          "type": "address"
        },
        {
          "internalType": "address",
          "name": "to",
          "type": "address"
        },
        {
          "internalType": "uint256",
          "name": "tokenId",
          "type": "uint256"
        },
        {
          "internalType": "bytes",
          "name": "data",
          "type": "bytes"
        }
      ],
      "name": "safeTransferFrom",
      "outputs": [],
      "stateMutability": "nonpayable",
      "type": "function"
    },
    {
      "inputs": [
        {
          "internalType": "address",
          "name": "operator",
          "type": "address"
        },
        {
          "internalType": "bool",
          "name": "approved",
          "type": "bool"
        }
      ],
      "name": "setApprovalForAll",
      "outputs": [],
      "stateMutability": "nonpayable",
      "type": "function"
    },
    {
      "inputs": [
        {
          "internalType": "bytes4",
          "name": "interfaceId",
          "type": "bytes4"
        }
      ],
      "name": "supportsInterface",
      "outputs": [
        {
          "internalType": "bool",
          "name": "",
          "type": "bool"
        }
      ],
      "stateMutability": "view",
      "type": "function"
    },
    {
      "inputs": [],
      "name": "symbol",
      "outputs": [
        {
          "internalType": "string",
          "name": "",
          "type": "string"
        }
      ],
      "stateMutability": "view",
      "type": "function"
    },
    {
      "inputs": [
        {
          "internalType": "uint256",
          "name": "tokenId",
          "type": "uint256"
        }
      ],
      "name": "tokenURI",
      "outputs": [
        {
          "internalType": "string",
          "name": "",
          "type": "string"
        }
      ],
      "stateMutability": "view",
      "type": "function"
    },
    {
      "inputs": [
        {
          "internalType": "address",
          "name": "from",
          "type": "address"
        },
        {
          "internalType": "address",
          "name": "to",
          "type": "address"
        },
        {
          "internalType": "uint256",
          "name": "tokenId",
          "type": "uint256"
        }
      ],
      "name": "transferFrom",
      "outputs": [],
      "stateMutability": "nonpayable",
      "type": "function"
    },
    {
      "inputs": [
        {
          "internalType": "address",
          "name": "newOwner",
          "type": "address"
        }
      ],
      "name": "transferOwnership",
      "outputs": [],
      "stateMutability": "nonpayable",
      "type": "function"
    }
  ],
  "bytecode": "0x60806040523480156200001157600080fd5b50336040518060400160405280601881526020017f43616d706169676e50617274696369706174696f6e4e465400000000000000008152506040518060400160405280600581526020016410d413919560da1b8152508160009081620000789190620001c2565b506001620000878282620001c2565b5050506001600160a01b038116620000b957604051631e4fbdf760e01b81526000600482015260240160405180910390fd5b620000c481620000cb565b506200028e565b600680546001600160a01b038381166001600160a01b0319831681179093556040519116919082907f8be0079c531659141344cd1fd0a4f28419497f9722a3daafe3b4186f6b6457e090600090a35050565b634e487b7160e01b600052604160045260246000fd5b600181811c908216806200014857607f821691505b6020821081036200016957634e487b7160e01b600052602260045260246000fd5b50919050565b601f821115620001bd57600081815260208120601f850160051c81016020861015620001985750805b601f850160051c820191505b81811015620001b957828155600101620001a4565b5050505b505050565b81516001600160401b03811115620001de57620001de6200011d565b620001f681620001ef845462000133565b846200016f565b602080601f8311600181146200022e5760008415620002155750858301515b600019600386901b1c1916600185901b178555620001b9565b600085815260208120601f198616915b828110156200025f578886015182559484019460019091019084016200023e565b50858210156200027e5787850151600019600388901b60f8161c191681555b5050505050600190811b01905550565b6113b7806200029e6000396000f3fe608060405234801561001057600080fd5b50600436106101215760003560e01c80638da5cb5b116100ad578063bb613cc111610071578063bb613cc114610264578063c87b56dd14610277578063e985e9c51461028a578063eacabe141461029d578063f2fde38b146102b057600080fd5b80638da5cb5b1461020557806395d89b4114610216578063a22cb4651461021e578063a7f5b51b14610231578063b88d4fde1461025157600080fd5b806323b872dd116100f457806323b872dd146101a357806342842e0e146101b65780636352211e146101c957806370a08231146101dc578063715018a6146101fd57600080fd5b806301ffc9a71461012657806306fdde031461014e578063081812fc14610163578063095ea7b31461018e575b600080fd5b610139610134366004610e21565b6102c3565b60405190151581526020015b60405180910390f35b610156610315565b6040516101459190610e8e565b610176610171366004610ea1565b6103a7565b6040516001600160a01b039091168152602001610145565b6101a161019c366004610ed6565b6103d0565b005b6101a16101b1366004610f00565b6103df565b6101a16101c4366004610f00565b61046f565b6101766101d7366004610ea1565b61048f565b6101ef6101ea366004610f3c565b61049a565b604051908152602001610145565b6101a16104e2565b6006546001600160a01b0316610176565b6101566104f6565b6101a161022c366004610f57565b610505565b61024461023f366004610f3c565b610510565b6040516101459190610f93565b6101a161025f366004611063565b61066d565b6101ef6102723660046110df565b610685565b610156610285366004610ea1565b6106c5565b610139610298366004611141565b610767565b6101ef6102ab3660046110df565b610795565b6101a16102be366004610f3c565b6107c9565b60006001600160e01b031982166380ac58cd60e01b14806102f457506001600160e01b03198216635b5e139f60e01b145b8061030f57506301ffc9a760e01b6001600160e01b03198316145b92915050565b60606000805461032490611174565b80601f016020809104026020016040519081016040528092919081815260200182805461035090611174565b801561039d5780601f106103725761010080835404028352916020019161039d565b820191906000526020600020905b81548152906001019060200180831161038057829003601f168201915b5050505050905090565b60006103b282610807565b506000828152600460205260409020546001600160a01b031661030f565b6103db828233610840565b5050565b6001600160a01b03821661040e57604051633250574960e11b8152600060048201526024015b60405180910390fd5b600061041b83833361084d565b9050836001600160a01b0316816001600160a01b031614610469576040516364283d7b60e01b81526001600160a01b0380861660048301526024820184905282166044820152606401610405565b50505050565b61048a8383836040518060200160405280600081525061066d565b505050565b600061030f82610807565b60006001600160a01b0382166104c6576040516322718ad960e21b815260006004820152602401610405565b506001600160a01b031660009081526003602052604090205490565b6104ea610946565b6104f46000610973565b565b60606001805461032490611174565b6103db3383836109c5565b6060600060075467ffffffffffffffff81111561052f5761052f610fd7565b604051908082528060200260200182016040528015610558578160200160208202803683370190505b509050600060015b60075481116105c8576000818152600260205260409020546001600160a01b038681169116036105b6578083838151811061059d5761059d6111ae565b6020908102919091010152816105b2816111c4565b9250505b806105c0816111c4565b915050610560565b5060008167ffffffffffffffff8111156105e4576105e4610fd7565b60405190808252806020026020018201604052801561060d578160200160208202803683370190505b50905060005b828110156106645783818151811061062d5761062d6111ae565b6020026020010151828281518110610647576106476111ae565b60209081029190910101528061065c816111c4565b915050610613565b50949350505050565b6106788484846103df565b6104693385858585610a64565b600061068f610946565b6000826040516020016106a291906111eb565b60405160208183030381529060405290506106bd8482610795565b949350505050565b60008181526008602052604090208054606091906106e290611174565b80601f016020809104026020016040519081016040528092919081815260200182805461070e90611174565b801561075b5780601f106107305761010080835404028352916020019161075b565b820191906000526020600020905b81548152906001019060200180831161073e57829003601f168201915b50505050509050919050565b6001600160a01b03918216600090815260056020908152604080832093909416825291909152205460ff1690565b60078054600091826107a6836111c4565b90915550506007546107b88482610b8f565b6107c28184610ba9565b9392505050565b6107d1610946565b6001600160a01b0381166107fb57604051631e4fbdf760e01b815260006004820152602401610405565b61080481610973565b50565b6000818152600260205260408120546001600160a01b03168061030f57604051637e27328960e01b815260048101849052602401610405565b61048a8383836001610bc1565b6000828152600260205260408120546001600160a01b039081169083161561087a5761087a818486610cc7565b6001600160a01b038116156108b857610897600085600080610bc1565b6001600160a01b038116600090815260036020526040902080546000190190555b6001600160a01b038516156108e7576001600160a01b0385166000908152600360205260409020805460010190555b60008481526002602052604080822080546001600160a01b0319166001600160a01b0389811691821790925591518793918516917fddf252ad1be2c89b69c2b068fc378daa952ba7f163c4a11628f55a4df523b3ef91a4949350505050565b6006546001600160a01b031633146104f45760405163118cdaa760e01b8152336004820152602401610405565b600680546001600160a01b038381166001600160a01b0319831681179093556040519116919082907f8be0079c531659141344cd1fd0a4f28419497f9722a3daafe3b4186f6b6457e090600090a35050565b6001600160a01b0382166109f757604051630b61174360e31b81526001600160a01b0383166004820152602401610405565b6001600160a01b03838116600081815260056020908152604080832094871680845294825291829020805460ff191686151590811790915591519182527f17307eab39ab6107e8899845ad3d59bd9653f200f220920489ca2b5937696c31910160405180910390a3505050565b6001600160a01b0383163b15610b8857604051630a85bd0160e11b81526001600160a01b0384169063150b7a0290610aa6908890889087908790600401611221565b6020604051808303816000875af1925050508015610ae1575060408051601f3d908101601f19168201909252610ade9181019061125e565b60015b610b4a573d808015610b0f576040519150601f19603f3d011682016040523d82523d6000602084013e610b14565b606091505b508051600003610b4257604051633250574960e11b81526001600160a01b0385166004820152602401610405565b805181602001fd5b6001600160e01b03198116630a85bd0160e11b14610b8657604051633250574960e11b81526001600160a01b0385166004820152602401610405565b505b5050505050565b6103db828260405180602001604052806000815250610d2b565b600082815260086020526040902061048a82826112c1565b8080610bd557506001600160a01b03821615155b15610c97576000610be584610807565b90506001600160a01b03831615801590610c115750826001600160a01b0316816001600160a01b031614155b8015610c245750610c228184610767565b155b15610c4d5760405163a9fbf51f60e01b81526001600160a01b0384166004820152602401610405565b8115610c955783856001600160a01b0316826001600160a01b03167f8c5be1e5ebec7d5bd14f71427d1e84f3dd0314c0f7b2291e5b200ac8c7c3b92560405160405180910390a45b505b5050600090815260046020526040902080546001600160a01b0319166001600160a01b0392909216919091179055565b610cd2838383610d43565b61048a576001600160a01b038316610d0057604051637e27328960e01b815260048101829052602401610405565b60405163177e802f60e01b81526001600160a01b038316600482015260248101829052604401610405565b610d358383610da6565b61048a336000858585610a64565b60006001600160a01b038316158015906106bd5750826001600160a01b0316846001600160a01b03161480610d7d5750610d7d8484610767565b806106bd5750506000908152600460205260409020546001600160a01b03908116911614919050565b6001600160a01b038216610dd057604051633250574960e11b815260006004820152602401610405565b6000610dde8383600061084d565b90506001600160a01b0381161561048a576040516339e3563760e11b815260006004820152602401610405565b6001600160e01b03198116811461080457600080fd5b600060208284031215610e3357600080fd5b81356107c281610e0b565b60005b83811015610e59578181015183820152602001610e41565b50506000910152565b60008151808452610e7a816020860160208601610e3e565b601f01601f19169290920160200192915050565b6020815260006107c26020830184610e62565b600060208284031215610eb357600080fd5b5035919050565b80356001600160a01b0381168114610ed157600080fd5b919050565b60008060408385031215610ee957600080fd5b610ef283610eba565b946020939093013593505050565b600080600060608486031215610f1557600080fd5b610f1e84610eba565b9250610f2c60208501610eba565b9150604084013590509250925092565b600060208284031215610f4e57600080fd5b6107c282610eba565b60008060408385031215610f6a57600080fd5b610f7383610eba565b915060208301358015158114610f8857600080fd5b809150509250929050565b6020808252825182820181905260009190848201906040850190845b81811015610fcb57835183529284019291840191600101610faf565b50909695505050505050565b634e487b7160e01b600052604160045260246000fd5b600067ffffffffffffffff8084111561100857611008610fd7565b604051601f8501601f19908116603f0116810190828211818310171561103057611030610fd7565b8160405280935085815286868601111561104957600080fd5b858560208301376000602087830101525050509392505050565b6000806000806080858703121561107957600080fd5b61108285610eba565b935061109060208601610eba565b925060408501359150606085013567ffffffffffffffff8111156110b357600080fd5b8501601f810187136110c457600080fd5b6110d387823560208401610fed565b91505092959194509250565b600080604083850312156110f257600080fd5b6110fb83610eba565b9150602083013567ffffffffffffffff81111561111757600080fd5b8301601f8101851361112857600080fd5b61113785823560208401610fed565b9150509250929050565b6000806040838503121561115457600080fd5b61115d83610eba565b915061116b60208401610eba565b90509250929050565b600181811c9082168061118857607f821691505b6020821081036111a857634e487b7160e01b600052602260045260246000fd5b50919050565b634e487b7160e01b600052603260045260246000fd5b6000600182016111e457634e487b7160e01b600052601160045260246000fd5b5060010190565b6d021b0b6b830b4b3b71027232a1d160951b81526000825161121481600e850160208701610e3e565b91909101600e0192915050565b6001600160a01b038581168252841660208201526040810183905260806060820181905260009061125490830184610e62565b9695505050505050565b60006020828403121561127057600080fd5b81516107c281610e0b565b601f82111561048a57600081815260208120601f850160051c810160208610156112a25750805b601f850160051c820191505b81811015610b86578281556001016112ae565b815167ffffffffffffffff8111156112db576112db610fd7565b6112ef816112e98454611174565b8461127b565b602080601f831160018114611324576000841561130c5750858301515b600019600386901b1c1916600185901b178555610b86565b600085815260208120601f198616915b8281101561135357888601518255948401946001909101908401611334565b50858210156113715787850151600019600388901b60f8161c191681555b5050505050600190811b0190555056fea2646970667358221220511577bd4a46777eb1ad99a8a8f27ccee8515133e64866bc4bce900d11db6b4664736f6c63430008140033",
  "linkReferences": {},
  "deployedLinkReferences": {}
}